:100000000C94C1040C94DE040C94F9040C94DE04EA
:100010000C94DE040C94DE040C9455230C94DE0442
:100020000C94DE040C94DE040C94DE040C94DE04C8
:100030000C94DE040C94DE040C94DC230C94DE049B
:100040000C94DE040C94DE040C94DE040C94DE04A8
:100050000C94DE040C94DE040C94DE040C94DE0498
:100060000C94DE040C94DE04352D52454652455363
:100070004820362D464F5257415244202000332D00
:10008000484F4D4520202020342D4241434B202015
:1000900020202000312D4348524F4D452020322D45
:1000A000424F4F4B4D41524B530042524F575345D5
:1000B0005220202020202000352D504C41592F5017
:1000C00041555345202020362D4E45585400332DA0
:1000D0004D5554452020202020342D50524556495E
:1000E0004F555300312D454E41424C454420202070
:1000F000322D53504F5449465900312D44495341F4
:10010000424C45442020322D53504F54494659000B
:100110004D45444941202020202020202000352D1D
:1001200041504558202020202020362D4C4946544F
:100130004F464600332D52414745205155495420E2
:10014000342D434F442020202000312D58424F5859
:10015000204354524C20322D4241542E4E455400DF
:1001600047414D494E472020202020202000352D9A
:10017000504153544520202020202020362D554E1C
:10018000444F2000332D504F57455220202020202F
:100190002020342D434F50592000312D53435245D8
:1001A000454E53484F542020322D534C4545500066
:1001B00053595354454D20202020202020004C41ED
:1001C000594552203E20000000A600A5007C007D7D
:1001D0000000000000000000000000000000006EB1
:1001E00000AF00A800AC00AE00AB000000BA00B544
:1001F00000B600B900B70000AE00AF00DA0281FF20
:10020000D9F1DB20A4A62EAF00A0C000A1C800AE8B
:10021000D580A81FD300408D14200007087F080751
:10022000003E5B4F5B3E003E6B4F6B3E001C3E7CD6
:100230003E1C00183C7E3C18001C577D571C001CBF
:100240005E7F5E1C0000183C180000FFE7C3E7FF5C
:1002500000001824180000FFE7DBE7FF0030483AF1
:10026000060E00262979292600407F050507004053
:100270007F05253F005A3CE73C5A007F3E1C1C0886
:1002800000081C1C3E7F0014227F2214005F5F00C8
:100290005F5F0006097F017F00006689956A006044
:1002A000606060600094A2FFA2940008047E0408CD
:1002B0000010207E20100008082A1C0800081C2AB4
:1002C0000808001E10101010000C1E0C1E0C003030
:1002D000383E383000060E3E0E06000000000000DA
:1002E0000000005F000000000700070000147F14FA
:1002F0007F1400242A7F2A12002313086462003628
:100300004956205000000807030000001C2241004D
:10031000000041221C00002A1C7F1C2A0008083E05
:100320000808000080703000000808080808000075
:1003300000606000002010080402003E5149453E64
:100340000000427F4000007249494946002141496E
:100350004D33001814127F10002745454539003CE5
:100360004A494931004121110907003649494936B6
:1003700000464949291E00000014000000004034D6
:10038000000000000814224100141414141400008A
:1003900041221408000201590906003E415D594EF0
:1003A000007C1211127C007F49494936003E4141D0
:1003B0004122007F4141413E007F49494941007F40
:1003C00009090901003E41415173007F0808087F77
:1003D0000000417F4100002040413F01007F0814A0
:1003E0002241007F40404040007F021C027F007F8E
:1003F0000408107F003E4141413E007F0909090683
:10040000003E4151215E007F0919294600264949D5
:1004100049320003017F0103003F4040403F001F7D
:100420002040201F003F4038403F00631408146301
:10043000000304780403006159494D4300007F41E3
:10044000414100020408102000004141417F0004A6
:100450000201020400404040404000000307080041
:10046000002054547840007F2844443800384444E5
:10047000442800384444287F00385454541800005D
:10048000087E09020018A4A49C78007F0804047860
:100490000000447D4000002040403D00007F1028C7
:1004A00044000000417F4000007C04780478007C18
:1004B0000804047800384444443800FC1824241804
:1004C0000018242418FC007C080404080048545434
:1004D00054240004043F4424003C4040207C001C81
:1004E0002040201C003C4030403C00442810284460
:1004F000004C9090907C004464544C4400000836BA
:1005000041000000007700000000413608000002B2
:1005100001020402003C2623263C000000000000EB
:1005200000404040F0F8F8FF38FFF8F83FF8F8FFD7
:1005300038FFF8F8F040404000000000000080C0A4
:10054000C0C0800000C0C08000000080C0C000C0EB
:10055000C0000080C0C00000000000C0C0C0C0C01B
:1005600000C0C0000000000000000000000000000B
:10057000000000000000000000000000000000007B
:10058000000000000000000000000000000000006B
:1005900000000000000000000000C0F0F8FC3E1E5B
:1005A00006010000007F4141417F007F4141417FC2
:1005B000000080C0E07E5B4F5BFEC00000C000DC3E
:1005C000D7DEDEDED7DC00C0000000000000000047
:1005D000000000000000000000000000000000001B
:1005E00000494949FFFFFFFFE0DFBFBF00BFBFDF9A
:1005F000E0FFFFFFFF49494900000000001F3F6086
:1006000060E0BF1F007F7F071E381E077F7F007FCF
:100610007F0E1F3B716000000000007F7F0C0C0C00
:10062000007E7E007F7E0303007F7E03037E7E03C9
:10063000037F7E000F3E703C063C703E0F00327B15
:1006400049493F7E007F7E0303001E3F69696F2694
:1006500000000000000000000000030F1F3F3C7876
:1006600070600000007F4141417F007F4141417F38
:1006700000307B7F7830202030787F3B0003000FF4
:100680007F0F0F0F7F0F000300000000000000002D
:10069000000000000000000000000000000000005A
:1006A00000010101070F0F7F0F7F0F0F7E0F0F7FDC
:1006B0000F7F0F0F07010101000000000000000084
:1006C0000000010100000000000000000000000028
:1006D000000000000000000000000000000000001A
:1006E000000000000000000000000000000000000A
:1006F00000000000000000000000000000000000FA
:1007000000000000000000000000000000000000E9
:1007100000000000000000000000000000000000D9
:1007200000000000000000000000000000000000C9
:1007300000000000000000000000000000000000B9
:1007400000000000000000000000000000000000A9
:100750000000000000000000000000000000000099
:100760000000002A2B28000000000000000000000C
:1007700000000000000029000000002C1E34202191
:100780002224342627252E362D3738271E1F2021D8
:1007900022232425263333362E37381F0405060737
:1007A00008090A0B0C0D0E0F101112131415161751
:1007B00018191A1B1C1D2F3130232D35040506076F
:1007C00008090A0B0C0D0E0F101112131415161731
:1007D00018191A1B1C1D2F3130354C000000000069
:1007E0000000000000000000000000000000000009
:1007F0000000000000000000000000000000007E7B
:100800000F00D4FFFFFFC70000007809025B000360
:100810000100A0FA090400000103010100092101FF
:1008200001000122400007058103080001090401BD
:10083000000203000000092101010001222200073B
:1008400005840308000107050403080001090402E8
:10085000000103000000092101010001227B0007C3
:100860000583030800011201100100000008616EF9
:1008700062600100010200011203530043005200B4
:1008800041004D0042004C004500000012036E0084
:1008900075006C006C006200690074007300000059
:1008A000040309040660FF0961A10109621500261D
:1008B000FF009520750881020963150026FF009549
:1008C0002075089102C005010902A10185020901F4
:1008D000A1000509190129081500250195087501D0
:1008E00081020501093009311581257F95027508BE
:1008F000810609381581257F950175088106050C4B
:100900000A38021581257F950175088106C0C0054A
:10091000010980A101850319012AB700150126B735
:1009200000950175108100C0050C0901A101850425
:1009300019012AA002150126A00295017510810057
:10094000C005010906A101050719E029E7150025E1
:100950000195087501810295017508810305071944
:100960000029FF150026FF0095067508810005087F
:1009700019012905950575019102950175039103EA
:10098000C00011241FBECFEFD8E0DEBFCDBF11E005
:10099000A0E0B1E0E8E2F1E502C005900D92AE3AC8
:1009A000B107D9F725E0AEEAB1E001C01D92A13749
:1009B000B207E1F70E94C6150C944A280C94000077
:1009C000A82FB92F80E090E041E050EA609530E038
:1009D00009C02D9182279795879510F08427952738
:1009E000305EC8F36F5FA8F30895EADF8D939D939F
:1009F0000895CF93CFB7CF93DF93C3954B9BE9F780
:100A00004B9B10C04B9B0EC04B9B0CC04B9B0AC01A
:100A10004B9B08C04B9B06C0C0914805C395C09333
:100A200048058EC06F93C0914705DD27C15BDA4F43
:100A30002F9365E54B9B03C02F916F91E1CF0F93EF
:100A40001F934F9320E040E15F9309B10C7003FBCB
:100A500027F93F9350E03BE039C01C7040642F778A
:100A6000012F5F5F1EC0406819B11C702F77525074
:100A70001FC0406409B12F770C70D1F15F5F00C0D7
:100A800023C0406219B12F771C7091F15F5F00C0E5
:100A900025C00C701027515012F45D5F00001150FA
:100AA00027952C3F19B1C8F61C70012701502795D6
:100AB0002C3FC8F64227499309B10C7010274F7399
:100AC000115027952C3FA8F64695469519B11C70F4
:100AD00079F00127015027952C3F98F66B5A60F367
:100AE000315009B1B0F600C012E01CBB00271CC099
:100AF0003B503195C31BD04012E01CBB0881033C26
:100B000021F10B3411F1209144051981110F1213B9
:100B1000EDCF4A81441F093679F10D3211F0013EC3
:100B200029F74F7009F0042F00934D053F915F9115
:100B30004F911F910F912F916F91CCB3C1FD5DCF5C
:100B4000DF91CF91CFBFCF91189520914D052223F2
:100B500069F310914B05112309F049C034300AF4B0
:100B600048C030934B0520934605109147053BE064
:100B7000311B309347053DC000914B050130BCF55A
:100B80000AE54F7049F430911D0134FD33C00093E4
:100B90001D01C1E2D5E032C0433059F0443091F03C
:100BA00030912C0534FD26C000932C05CDE2D5E014
:100BB00025C03091650534FD1DC000936505C6E66E
:100BC000D5E01CC03091380534FD14C000933805C1
:100BD000C9E3D5E013C0052710E000C000000BB941
:100BE0001AC0052710E0221F1DC010E021C04AE5F1
:100BF00002C032ED432FC4E1D0E032E01AB11C60F4
:100C00005B9A0BB11AB95CE020E865E320FF052789
:100C10000BB9279517951C3FF0F66695B8F7B1F715
:100C200020FF05270BB9279517951C3FD0F6279570
:100C3000179517FF052700001C3F0BB9B0F6299147
:100C40003A9519F7037F10914C05110FC651D0400A
:100C50000BB911F01093440512E01CBB08601AB1E7
:100C6000137F402F437F54E05A95F1F70BB91AB91F
:100C70004BB95CCF813039F0882341F0823029F4C0
:100C8000229A2A9A089522982A980895229AFCCFA7
:100C900060E08EEB91E00E94111B8091BB010E94ED
:100CA000DB078130F1F0882339F0823069F183303D
:100CB00009F444C080E0089560E080EB91E00E9478
:100CC000111B60E08AE991E00E94111B60E084E85A
:100CD00091E00E94111B60E08EE691E00E94111BE2
:100CE000E9CF60E080E691E00E94111B60E08AE4B9
:100CF00091E00E94111B60E084E391E00E94111BCF
:100D000060E08EE191E0EACF60E080E191E00E9456
:100D1000111B8091B00160E081110DC08AEF90E05D
:100D20000E94111B60E08EEC90E00E94111B60E0BD
:100D300088EB90E0D3CF84EE90E0F2CF60E08AEAD7
:100D400090E00E94111B60E084E990E00E94111B7A
:100D500060E08EE790E00E94111B60E088E690E082
:100D6000BDCF80E00E943A0608958091B0018823AB
:100D700041F089EA611101C08AEA0E94080981E014
:100D800008958091B101662369F08F5F843018F473
:100D90008093B10102C01092B1018091B1010E9413
:100DA000EA0BEDCF882311F08150F2CF83E0F0CF32
:100DB0008E36910561F4FB018281882341F0809198
:100DC000B00191E089278093B00180E0089581E02F
:100DD000089584E008958430B8F46230A8F4433074
:100DE00098F450E093E0699F400D511D1124FA01E1
:100DF00096E0899FE00DF11D1124EE0FFF1FE953CE
:100E0000FE4F85919491089581E090E0089581E0EE
:100E100008950E94D806089508950E940C07089529
:100E2000A5E0B0E0E6E1F7E00C94C12749835A83DE
:100E30003091B70189819A81311119C0662399F0E7
:100E4000222389F00E94A30C182F682F89819A8190
:100E50000E947F0C69817A81812F0E94A3132596BD
:100E6000E3E00C94DD270E94910C182FF3CF0E9431
:100E7000A30C69817A81F1CFFC01262F4081518139
:100E80006281738184810E941007089581E0089532
:100E9000CF93DF93EC0160E00E943C07BE010E940B
:100EA0000D07DF91CF91089508950E94750B0E9460
:100EB00054072FEF84E39CE0215080409040E1F7FD
:100EC00000C0000008950E9455070E940024089564
:100ED0000E9455070E94152408950F931F93CF93E6
:100EE000DF938C0161E00E943C07EC01B8010E9495
:100EF000BD18811106C080E0DF91CF911F910F9145
:100F00000895B801CE010E9409078823A1F3B80112
:100F1000CE010E94E320882371F3B801CE010E9424
:100F2000781C882341F3B801CE010E945520882304
:100F300011F3B801CE010E9427218823E1F2F801C4
:100F40008281882361F0C330FCE7DF07E9F058F4C1
:100F5000C115ECE7DE07A9F0C130DC47B9F0C801E4
:100F60000E940707C9CFCB358CE7D807A9F0CC354D
:100F7000ECE7DE0771F0CA35DC4789F70E94E01024
:100F8000EECF0E946307B7CF0E94E8100E94680767
:100F9000B2CF0E94D610E3CF0E94E410E0CF0E94AF
:100FA00037230E9409080E94301C08950E940D08F2
:100FB0000E943C230895982F92959F7011F0892FDD
:100FC00094E0282F2695269511F09E5F822F869516
:100FD00009F09F5F892F0895089581E0089508958D
:100FE000CF93DF93D82F0E94ED07C82F882319F0E5
:100FF0008D2F0E94EF078C2FDF91CF9108950895D8
:10100000CF93C82F0E94EC078C2F0E94F007CF913E
:10101000089580E00E94000808950E9466220E94C0
:1010200000080895CF930E946622C82F8091B201D4
:101030008C1779F0C093B2010E94C1236093B30171
:101040007093B4018093B5019093B6018C2F0E94E8
:101050000008CF910895ABE0B0E0E1E3F8E00C9434
:10106000C2274F83588769877A878B8761110E94CF
:1010700037101E821D8285E0FE013796DE01119633
:1010800001900D928A95E1F78C819D81892B61F405
:1010900049815A816B817C818D819E810E945F0F85
:1010A0002B96E2E00C94DE2789819A8189238F3F79
:1010B00079F3CE0101960E9446078111E9CFF0CF66
:1010C000FC01808191810E94D00C0895662329F053
:1010D0000E944A160E941D1708950E94A416FACF76
:1010E000CF93C82F8823B9F08CEF8C0F813AA8F4E6
:1010F0006C2F80910001909101010E94E8228823C9
:1011000029F08C2F0E94F70F0E9458108C2F0E94FC
:10111000EF0F0E945810CF91089580E28C0F883015
:1011200048F4C77081E001C0880FCA95EAF70E94B1
:101130001A10EFCFEBE5EC0FE33040F4F0E0EC5A9F
:10114000FE4F808190E00E948C22E5CFE8E5EC0F15
:10115000EB3150F4F0E0EE0FFF1FE25EFE4F8081B6
:1011600091810E94B122D7CF83E38C0F833198F60F
:1011700061E08C2F0E946608CECF882381F19CEF1E
:10118000980F913A28F40E94F70F0E945810089582
:1011900090E2980F983050F4877091E001C0990F59
:1011A0008A95EAF7892F0E942010EFCF9BE5980FD0
:1011B000933028F490E080E00E948C22089598E516
:1011C000980F9B3128F490E080E00E94B1220895AE
:1011D00093E3980F933118F460E00E946608089535
:1011E0001F93CF93DF93182FEB010E947008209775
:1011F00039F4812F0E94BD08DF91CF911F9108958E
:101200008FE99FE00197F1F700C000002197EFCF31
:101210006AE070E0893311F460E570E00E94F00844
:101220000895882321F00E941A100E9458100895F2
:10123000882321F00E9420100E9458100895B0E0E9
:10124000A0E0E5E2F9E00C94BB276C01D62FC72F94
:10125000FC011281058102950F700E941010E82E8A
:101260008823E9F0E12E1123D1F08C2F807F803488
:1012700051F080E28D0F8830F8F0011104C08C2FFE
:10128000807E8032C9F08091120382FF15C082E017
:101290000E94A5100E94101091E0E82EE926BC2EB5
:1012A000B2949FE0B922FBE0FB15B8F1EB2DF0E022
:1012B000E45BF74D0C94A527E12CF1CF0C2F0F70B8
:1012C000C07F11F00295007F112399F0002359F09F
:1012D00080E28D0F883010F0D11107C0802F0E945E
:1012E0001A100E9458108D2F62C0802F0E942A1061
:1012F000F8CF8D2F0E94BD08002379F080E28D0F7A
:10130000883010F0D11104C0802F0E94201003C03B
:10131000802F0E9430100E945810EB2DE850FF0BD8
:10132000349720F40E9466220E940008EE2089F083
:101330000E940C1080FD0DC0F60112820E94061062
:101340000E94F30BC6010E94350B0E9406100E94FA
:10135000FF0BCDB7DEB7E9E00C94D7272C2F2F7009
:10136000F22EC07FC03219F0F29480EFF822DD2314
:1013700081F0D13009F449C0112309F451C0002390
:1013800009F448C0F601858180FFADCF8F70858359
:1013900041C08091120382FD15C0112359F0FF2036
:1013A00029F08F2D0E941A100E94581080E00E9490
:1013B0007008B3CF80E00E94BD08FF2009F4ADCFD4
:1013C0008F2DA3CF112381F0011106C00E943A1086
:1013D0008F290E941109A1CF0130C1F70E943A1054
:1013E0008F290E94411099CF011106C00E944E1012
:1013F0008F2D0E94180991CF013009F48ECF8F2DC7
:101400000E9418090E944E1088CF112329F006303F
:1014100008F083CF8F2DDDCF053008F07ECFE8CFE9
:10142000002331F3D93309F000C1FFEF27EE33E099
:10143000F15020403040E1F700C000008D2F0E94A5
:10144000BD086BCF8C2F86958695837069F08130AF
:1014500009F063CF8D2F9C2F9370111102C080E093
:1014600090E00E94B12259CF8D2F9C2F93701111C3
:1014700002C080E090E00E948C224FCF612F8D2F20
:101480000E9466084ACF8C2F837079F5111145CFE1
:101490004D2F429546954770440F440F8D2F8F7006
:1014A000042E01C0880F0A94EAF72D2F2071D4FF73
:1014B00007C02FE030E001C0220F4A95EAF72095DF
:1014C000C695C695C370822BC23049F058F4C1301E
:1014D00019F00E94CF0B21CF0E94C90B1ECF0E9492
:1014E000D50B1BCF0E94C60B18CF8695112311F088
:1014F0008C2F8170882309F410CF4D2F429546958B
:101500004770440F440F8D2F8F70042E01C0880F39
:101510000A94EAF72D2F2071D4FF07C02FE030E0A6
:1015200001C0220F4A95EAF72095C695C695C3706B
:10153000822BC23049F058F4C13019F00E941E0CC1
:10154000ECCE0E94180CE9CE0E94240CE6CE0E943C
:10155000E10BE3CECF70112329F08C2F0E94F30B07
:101560008D2F37CF8D2F0E9418098C2F0E94FF0BD3
:10157000D4CED23F41F160F4D03FB9F0D13F81F0F9
:10158000112309F446C00111AECE8C2F8F711FC0FC
:10159000D33F01F1D43FA1F78091120382FD24C013
:1015A0008C2F8F71112311F312C0112341F00530DC
:1015B00008F0B3CE8C2F8F710E940C0CAECE06308B
:1015C00008F0ABCEF7CF8C2F8F711111CFCF0E94C7
:1015D000F30BA3CE112329F08C2F8F710E94EA0BFD
:1015E0009CCE0E94E60B99CE112349F0CF718C2F2F
:1015F0000E94F30B63E08C2F0E9487108ECE81E057
:101600000E94A510023008F488CE82E00E94A51046
:1016100084CE002379F0D93341F49FEFE7EEF3E075
:101620009150E040F040E1F707CF8FE39CE901974C
:10163000F1F702CF8C2F8F7199CF0F931F93CF9318
:10164000DF93EC01688179818A810E94DB0C8C0137
:101650000E942A0C0E94C50BB801CE010E941F09EE
:10166000DF91CF911F910F910895CF93DF93EC01FC
:101670008B819C81892B29F08881998189238F3FD7
:1016800051F4DF91CF910895CE010E941D0BCE0140
:101690000E944807F6CFCE010E946D078111F4CF5A
:1016A0000E941010882369F38A81882351F3809166
:1016B000120382FFE6CF82E00E94A510E2CF90E005
:1016C00080E00E948C2290E080E00E94B1220E9483
:1016D00037100E9458100E9439170E941D17089554
:1016E0000E94FF0F0E945F0B08950E9427100E9426
:1016F000700B089592959F70963091F058F4925F18
:101700009F70923058F4803F19F030F4883E30F4E6
:1017100081E008959A5FF4CF843FD1F380E008958B
:10172000883EB0F3813FD1F7F3CFFC0183819481F0
:10173000892B29F08081918189238F3F11F480E0EA
:101740000895808191810E94D00C0E947A0B0895A7
:10175000A5E0B0E0EEEAFBE00C94C2272596E2E0BB
:101760000C94DE27A6E0B0E0E8EBFBE00C94C22787
:101770002696E2E00C94DE2708950E94BC0B0895A3
:101780000E94BD0B8093BC01089508950E94C00B78
:1017900008959091BC01892B0E94C00B08959091EF
:1017A000BC0189230E94C00B08959091BC01892738
:1017B0000E94C00B08950E94BC0B08950E94DB0B91
:1017C00008950E94DE0B8093BB01089580E00E9483
:1017D000E10B089591E001C0990F8A95EAF7892FEE
:1017E0000E94E10B089521E030E001C0220F8A95AC
:1017F000EAF78091BB01822B0E94E10B089521E062
:1018000030E001C0220F8A95EAF720958091BB0154
:1018100082230E94E10B089521E030E001C0220FF5
:101820008A95EAF78091BB0182270E94E10B089517
:101830009091BB01892B0E94E10B08959091BB010F
:1018400089230E94E10B08959091BB0189270E9492
:10185000E10B08950895262F277091E001C0990F9C
:101860002A95EAF723E0769567952A95E1F7FB013B
:10187000EE0FFF1FE60FF71FE40FF51F50E040E0EB
:10188000682F70E08191DF0111979B01042E02C047
:10189000369527950A94E2F7217021952827292368
:1018A00028272C934F5F5F4F4330510559F7089518
:1018B000A82FA77023E0969587952A95E1F7FC015C
:1018C000EE0FFF1FE80FF91FE60FF71F50E040E093
:1018D00080E0219130E00A2E02C0369527950A94C7
:1018E000E2F721703327042E01C0220F0A94EAF791
:1018F000822B4F5F5F4F4330510559F70895262FD4
:10190000923070F4833060F4682F70E083E0989F29
:10191000600D711D112448EB51E0822F0E942B0CA9
:101920000895292F923068F4833058F490E068EBE2
:1019300071E033E0239F800D911D11240E94580C0B
:10194000089580E00895CF92DF92FF920F931F9346
:10195000CF93DF936C010091BB018091BC01082BF8
:10196000C3E0D0E010E0FC2EC8010C2E02C095951B
:1019700087950A94E2F780FD0CC02197A0F7F12C1F
:101980008F2DDF91CF911F910F91FF90DF90CF901E
:101990000895B6018C2F0E94AF13019771F3F0CF19
:1019A000CF93DF93EC010E94A30CBE010E94AF1302
:1019B000DF91CF9108951F93CF93DF93EB01909127
:1019C000B701992339F0CB010E94D00CDF91CF9160
:1019D0001F910895882369F0CB010E94A30C182F52
:1019E000682FCE010E947F0CBE01812F0E94AF1391
:1019F000EDCFCB010E94910C182FF6CFE1E0F0E083
:101A0000DF0102C0AA0FBB1F6A95E2F7BD01DF012B
:101A100002C0AA0FBB1F4A95E2F76A2B01C0EE0F66
:101A20002A95EAF7962F9823961302C08E2B0895D5
:101A3000E0958E230895242F462F682F8091BB01B7
:101A40000E94FE0C0E94E10B08951F93CF93DF9339
:101A5000C091BD0116E08091BE018C1304C0DF91DE
:101A6000CF911F910895D0E01C9FF0011D9FF00DB4
:101A70001124E154FE4F4081518162817381848140
:101A800095810E94B20B2196C770E5CF4091EF017E
:101A90005091F0016091F1017091F2018091F30198
:101AA0009091F4010E94B20B08952091BD01909194
:101AB000BE0156E0291302C080E0089530E0529F35
:101AC000F001539FF00D1124E154FE4F7181761304
:101AD00006C07081781303C07281741304C02F5F35
:101AE0003F4F2770E7CF81E008951F93CF93DF9397
:101AF0008091F401807F09F04BC08091F10188232F
:101B000009F446C08091BD01C091BE014091EF0132
:101B10005091F0016091F2017091F301D42FD5231F
:101B200016E0C817A9F190E061157105A9F1DF3F32
:101B300099F1189FF001199FF00D1124DF01A154B4
:101B4000BE4F11962C911197251326C02C9124136A
:101B500023C012962C91129721111EC013962D911D
:101B60003C91261B370B283C3105B0F48091F401E1
:101B70008F7080618093F401EC53FE4F80818F70F1
:101B8000806180838FEE91E00E94350B0E94250DCD
:101B9000DF91CF911F91089501968770C2CFA1E187
:101BA000B0E0E5EDFDE00C94B8278C0185E0F8018C
:101BB000DE011D9601900D928A95E1F7F801F28001
:101BC0008FEEA82E81E0B82E4091F2015091F301E2
:101BD0004115510509F45AC19091EF012091F0018E
:101BE000892F82238F3F09F451C1C080D180838027
:101BF0009480E090F101B401641B750BEE2009F4B0
:101C0000F6C08091F401382F307F683C710508F0F0
:101C1000AFC031117AC0EF2C2D1116C09C1114C029
:101C2000F11012C08F7080618093F4010E94460D04
:101C3000C5010E94350B8091F401F80185838E2D3A
:101C40006196ECE00C94D42781149104C9F18C2D99
:101C50008D218F3FA9F181E08F2580FF05C04F2D99
:101C60006D2D8C2D0E94550D8114910459F18C2DF0
:101C70008D218F3F39F181E08F25F82FF170BF2E34
:101C800080FF39C04F2D6D2D8C2D0E94550DA82E33
:101C9000811131C0CD86DE868D859E850E94D00C57
:101CA000292F22952F70243078F49F702230A8F0CD
:101CB0009923B9F0F8019581907F99F4EA2CBFCF70
:101CC00080E0CBCF80E0D9CF2A5F2F70223068F040
:101CD000C8010E94350BAB2CF1CF992311F088235A
:101CE00069F3805E883050F3F3CF803F38F3815F33
:101CF000833070F7E3CFFF2009F4A1CF8091F40186
:101D000081608093F401E12C9ACF2D1105C09C11C4
:101D100003C0FF2009F486C0C8010E94950B8823E8
:101D200019F1FF2009F18091F401803270F02091C7
:101D3000EF013091F00138872F8319869B868A86C0
:101D40008C87CE0107960E94350B86E0F801AFEE36
:101D5000B1E001900D928A95E1F70E94750D0E9405
:101D6000460DEE24E3946BCFC8010E94350BF9CFEA
:101D7000311114C0782D998A888AA6016F2D89891E
:101D80000E94A80B8FEE91E00E94350B86E0F501D2
:101D900011928A95E9F70E94460DB5CF2D110EC01C
:101DA0009C110CC0F1100AC08583C8010E94350B3C
:101DB00086E0F50111928A95E9F741CFC8010E94AA
:101DC000950B882389F2FF2079F28091F40180320B
:101DD00008F4BBCF2091EF013091F0013A832983C1
:101DE0001B829D828C828E83CE010196ACCF683C93
:101DF000710508F03DC0EF2CFF2009F4B5CF2D117F
:101E000029C09C1127C08091F40180FD1AC0982F31
:101E1000907FB9F08583903F31F0982F907F905F4D
:101E20008F70892B8583C8010E94350B86E0F801ED
:101E3000AFEEB1E001900D928A95E1F70E94460D58
:101E4000FECE86E0F801AFEEB1E001900D928A95EA
:101E5000E1F7F5CEC8010E94950B811176CF8091F4
:101E6000F40181608093F401C8010E94350BE7CE34
:101E7000782D998A888AA6016F2D89890E94A80BDE
:101E800086E0F50111928A95E9F7D8CFFF2009F491
:101E90006BCFC8010E94950BE82E882309F464CF0C
:101EA00086E0F801AFEEB1E001900D928A95E1F77E
:101EB0008FEE91E00E9460080E94750DBFCFACE0EC
:101EC000B0E0E5E6FFE00C94C1274F8358876987AF
:101ED0007A878B879C87CE0107960E94CF0D882337
:101EE000B1F08A859B85892B39F04F815885842FE5
:101EF00085238F3F09F06CC016E08091BD01909161
:101F0000BE01891343C02C96E3E00C94DD2786E0E4
:101F1000FE013796DE01119601900D928A95E1F748
:101F20008A859B85892B41F38F81988589238F3FF3
:101F300019F32091BE0130E0C901019687709927FD
:101F40004091BD014817190671F40E94750B10925B
:101F5000BE011092BD0186E0EFEEF1E0DF011D92BF
:101F60008A95E9F7C9CF96E0929FD001939FB00D73
:101F70001124A154BE4FFE01319601900D929A9505
:101F8000E1F78093BE010E94250DB6CF819FC0016D
:101F9000112481549E4F0E94CF0D882309F4B3CFA2
:101FA000E091BD011E9FF0011124E154FE4F4081DC
:101FB000518162817381848195810E94B20B8091ED
:101FC000BD0190E00196877099278093BD0195CF60
:101FD00069857A858B859C850E94B20B8DCF682F91
:101FE00080910001909101010E941E230895682FA5
:101FF00080910001909101010E9421230895809118
:102000000001909101010E94242308958091F5011F
:1020100085958595859508958091F501877008953A
:102020009091F501977081E009F480E00895809126
:102030000002089590910002892B80930002089578
:102040008095909100029823909300020895109239
:10205000000208959091FF01892B8093FF0108955C
:1020600080959091FF0198239093FF01089510921D
:10207000FF0108958091F601089508950E943D1092
:1020800008959091120392FF08C09091F60198175D
:1020900021F08093F6010E943E1008958091F60190
:1020A000882329F01092F60180E00E943E100895E6
:1020B000E0910001F0910101809100028083E091A4
:1020C0000001F091010180819091FF01892B8083B3
:1020D0009091F601992381F0E0910001F0910101C6
:1020E0008081892B808380910001909101010E9461
:1020F000D62281110E944E10809100019091010121
:102100000E947322089508950E948310089590916B
:10211000120392FF11C098E0899F90011124622B55
:102120006093F5010E94F30B8091F50185958595EB
:1021300085950E94841008950E94F30B08951092D3
:10214000F50180E00E94841008959091F50180953A
:1021500089238093F501282F277091F4282F082ECA
:10216000000C330B9217130659F09091120392FF53
:1021700007C08595859585950E94FF0B0E949F104D
:1021800008959091120392FB222720F9281769F0F5
:1021900080FB92F9909312038091110390911203A6
:1021A0000E940A1182E00E94A510089580911203F6
:1021B00082FB882780F991E089270E94C110089549
:1021C00081E00E94C110089580E00E94C11008952E
:1021D0006FEF7FEF90E080E00E943428089590E058
:1021E00080E00E941028873E9E4F19F40E945718E5
:1021F000089580E0089582E090E00E940828089504
:1022000083E090E00E940828089584E090E00E9416
:1022100010280895BC0184E090E00E9434280895BD
:10222000AB01BC018FE090E00E9428280895AB012B
:10223000BC0183E190E00E942828089560E070E0EE
:10224000CB010E941711089560E070E0CB010E945D
:1022500010110E941E11089567EE7EEF90E080E05D
:102260000E94342860E082E090E00E94162860E03E
:1022700083E090E00E9416281092BC0160E074E1B7
:1022800084E090E00E94342860E086E090E00E94C4
:1022900016286FEF87E090E00E94162840E050E09B
:1022A000BA0188E090E00E94282860E08DE090E08C
:1022B0000E94162840E050E0BA0188E190E00E94B8
:1022C000282860E087E190E00E94162840E050E076
:1022D000BA018CE190E00E94282870E060E080E282
:1022E00090E00E94342840E050E0BA0188E190E09C
:1022F0000E94282880E00E9470180E949F180E9467
:10230000241108950E942C110895682F8EE090E00A
:102310000E9416280895A5E0B0E0E1E9F1E10C94EF
:10232000C0270E94B5238C01809101029091020286
:1023300080179107A1F08FEF89838A831B820E9407
:10234000B5238160782F9D838C8349815A816B816D
:102350008D810E942B0810930202009301022596A2
:10236000E4E00C94DC270E94C12360930D0270937B
:102370000E0280930F0290931002609309027093F3
:102380000A0280930B0290930C0208950E94C123CD
:1023900060930D0270930E0280930F0290931002CF
:1023A00060930502709306028093070290930802DF
:1023B0000895089508950E94DA11089508950E94DD
:1023C000DE11089581E0089589E994E10E945C227C
:1023D0000E94D9110E94DB1108950E94E211089514
:1023E0000E94ED110895089508950E94F3110E942E
:1023F000F41108950E94B8140E94FF0708950E94E6
:10240000AC230E94AF180E94211E0E943B150E941F
:10241000FA1180E00E94E7190E94DF110895A5E0FB
:10242000B0E0E5E1F2E10C94B9270E94E211C82E78
:10243000811118C00E948B11C12C0E94451E182FBB
:1024400081110E94C6110E944E1CC11001C01111C1
:102450000E94231B0E945B170E9412082596EBE046
:102460000C94D5270E944B151091030280E00E9426
:10247000DA14181307C01091040281E00E94DA14E4
:102480001817C1F28091110281FD0E94E0140E9490
:10249000F011982E83E0A82E82E0B82E10E0812F54
:1024A0000E94DA14082FF50181915F01081731F1BC
:1024B000D02ED826F12CEE24E3948D2D8E21B1F070
:1024C0009920A1F0F9821A8391E0802F8E2109F4DE
:1024D00090E09B830E94B5238160782F9D838C833D
:1024E00049815A816B818D810E942B08F394EE0CF7
:1024F000F3E0FF12E2CFF50131970083113019F4B8
:102500000E94B3119ACF11E0CACF1F93CF93DF93EC
:102510000E94B413EC01C11580E5D807F0F5C11590
:1025200080E4D80708F09CC0C03ED10520F5CD3C22
:10253000D10508F082C0C83AD10578F4C53AD10572
:1025400008F073C0C130D10519F1209709F1C430EA
:10255000D105F0F4D0E0C0E01BC0C33CD105D0F7FA
:10256000C85AD0E0CC0FDD1FC95ADE4F0990D88180
:10257000C02DD4640DC0C11580E2D80708F0D1C0C9
:10258000C11581E0D80708F05AC0C83ED10510F740
:10259000CE01DF91CF911F910895C03682E5D80713
:1025A00018F5C03482E5D80708F06BC0C03282E568
:1025B000D80708F05FC0C11582E5D80708F497C0B6
:1025C0002C2F2695269580E2289F900111248C2F90
:1025D0008370C1E0D0E002C0CC0FDD1F8A95E2F726
:1025E000C22BD32BDD68D4CFC03A82E5D80760F484
:1025F000C03882E5D80708F459C0CF71D0E0DC2F8D
:10260000CC27C46FD06AC4CFC03C82E5D80708F499
:1026100062C0C03E82E5D80708F09CCFDC2FCC27F3
:10262000CC27DF71C06FD06AB3CFC55AD0E0C35793
:10263000DE4FC881D0E0D064ABCFD065A9CF8D2F5D
:102640000E945614182FCE0199270E94B413C12F4F
:10265000D0E0DC2FCC27CC27DF71C82BD92B98CF2B
:10266000CE0199270E94B413CC27DF70C82BD92B39
:10267000D06A8ECFCF71D0E0DC2FCC27C16FD06A6B
:1026800087CF2C2F26952695277080E2289F9001D2
:1026900011248C2F8370C1E0D0E002C0CC0FDD1F6D
:1026A0008A95E2F7C22BD32BDC6872CF2C2F2695AC
:1026B0002695277080E2289F900111248C2F83702B
:1026C000C1E0D0E002C0CC0FDD1F8A95E2F7C22B3B
:1026D000D32BDA685DCF8C2F8F710E945614C82FD0
:1026E000D0E0DC2FCC27CC27DF71D06251CF8C2FEC
:1026F0008F710E94561455E0D695C7955A95E1F70B
:10270000CF70D0E0DC2FCC27282F30E084FF05C02D
:1027100044E0220F331F4A95E1F7C22BD32BD06937
:1027200037CF8D2F8F710E945614182FCE01992705
:102730000E94B413C12FD0E0DC2FCC27CC27DF714F
:10274000C82BD92BD2CF462F723030F4633020F40F
:10275000672F0E946D1F089590E080E008950E9409
:10276000A3130E948512089582389105B9F1B0F43F
:102770008133910509F47DC048F48932910509F44B
:102780006DC08A32910509F47BC0089585339105A7
:1027900009F45FC08933910509F10895833E9105DD
:1027A000D9F138F4803E910529F1823E910579F105
:1027B0000895863E9105D9F1873E910509F43EC002
:1027C000843E910541F52091120321FF24C08091A0
:1027D000110384FD19C087EE90E008952091110344
:1027E000237009F05AC02091120323FF14C089E21C
:1027F00090E008952091110320FD38C0309112031C
:1028000030FF09C024FF43C090E080E0089520918C
:10281000110322FDF7CF08952091110322FD3AC044
:102820003091120330FD39C024FFF5CFEDCF209158
:10283000110323FFF0CF24FDE7CFCDCF209111036B
:1028400023FD2EC03091120331FFEECF84EE90E0D5
:1028500008952091110325FFDECFC9CF20911103E8
:1028600025FD21C02091120323FFD5CF89E390E0FD
:10287000D2CF2091110326FFCECF8AE290E00895B7
:102880002091110326FFC7CF81E390E0089583EEE6
:1028900090E0089582EE90E0089580EE90E0089533
:1028A00086EE90E0089585E390E0089590911103FD
:1028B00092FF06C0282F28712830F9F4877F8460A2
:1028C00093FF06C0282F28712831F1F4877E846198
:1028D0002091120320FF06C0382F38713830D9F408
:1028E000877F816021FF06C0282F28712831D1F40D
:1028F000877E816194FD877E0895282F247124307E
:10290000F9F68B7F8860DCCF282F2471243101F702
:102910008B7E8861DDCF382F3171313019F78E7F92
:102920008860E0CF282F2171213121F78E7E8861C8
:10293000E1CF80E008950E94E81008950E944B15B1
:102940002FEF89EF90E0215080409040E1F700C0E8
:1029500000000E944B1581E00E94DA1482FF04C03F
:102960000E949B140E94002408950E949E140895C2
:102970000E94EF10811102C00E9482110E94FB1080
:10298000809311020E94051190931203809311030A
:102990000E94B5140E9400110E94C60B8091BB01D9
:1029A0000E94DE0B08950E94B106089508950E94CA
:1029B000D6140895E82FF0E0EB5EFC4F8081089577
:1029C00008951F93CF93DF9320E931E0C1E0D0E079
:1029D000D90150E040E08D918F3F91F0E82FE295D2
:1029E000EF70F0E011A18F70BE0101C0660F8A95F3
:1029F000EAF7962F9095912391A382A1862B82A32B
:102A00004F5F5F4F4330510531F72D5F3F4F81E0FE
:102A100026393807E9F6DF91CF911F910895CF93BA
:102A2000DF93AC01A62FB0E083E0689FF001112492
:102A3000E057FE4F73E081E060E091919F3FC9F065
:102A4000C92FC295CF70D0E028A130E09F7002C09E
:102A5000359527959A95E2F720FD0BC0282F622B1C
:102A6000880F715051F7A40FB51F6C93DF91CF9170
:102A7000089520E0F4CF0E94E11410921603109202
:102A80001503109214031092130382E00E94811523
:102A90000E94D3140895A2E0B0E0E1E5F5E10C94C2
:102AA000C1271A82198260E0CE0101960E940F159B
:102AB00061E0CE0101960E940F1542E050E0BE0198
:102AC0006F5F7F4F83E193E00E94F22721E0009740
:102AD00009F420E0892B31F089819A8190931403C5
:102AE0008093130342E065E173E083E193E00E9489
:102AF0008215182F0E94D714812F2296E3E00C94A0
:102B0000DD270895CF92DF92EF92FF920F931F93EC
:102B1000CF936C017B01042F222349F081E0809345
:102B200014020E94B5239093130280931202C09165
:102B30001402C1110AC0C0E08C2FCF911F910F91D8
:102B4000FF90EF90DF90CF900895809112029091C6
:102B500013020E94CD230A9770F310E0A801B6017A
:102B6000C7010E94F227892B41F0A801B601C701D5
:102B70000E94FF2710921402DFCFC0E0FBCF0E941B
:102B800030240E94FF110E94412408950E94542382
:102B90000E9420240E94E4110E94BF150E944F242D
:102BA0000E94F511FBCF80911B0280FF0DC0609148
:102BB000070170E0660F771F6038710570F56115C9
:102BC000710569F1862F089581FF07C060910701A3
:102BD00084E0689FB0011124EFCF6091070182FD6E
:102BE0000AC080911A028823A9F020910601609101
:102BF0000701821710F088E0ECCF869FC0011124F6
:102C000033E0880F991F3A95E1F7622F70E00E9438
:102C10009127D2CF68E070E0D5CF8FE7089581E0AB
:102C2000089580911B0280FF0CC06091030170E049
:102C300075956795759567956115710549F1862FAD
:102C4000089581FF06C06091030170E07595679556
:102C5000F3CF6091030182FD0BC09091190299237B
:102C6000A1F06091020180910301961738F0682F5E
:102C700070E06038710500F38FE70895899FC00107
:102C8000112470E00E949127F4CF61E070E0D7CF6B
:102C900081E008958D3C31F40E94D3158195809395
:102CA0001F0208958E3C19F40E94D315F8CF8F3C73
:102CB00031F40E94D315819580931E020895803DC2
:102CC00019F40E94D315F8CF893D29F40E941116FA
:102CD0008093200208958A3D21F40E941116819567
:102CE000F7CF8B3D31F40E9411168195809321021C
:102CF00008958C3D19F40E941116F8CF9FE2980FA9
:102D0000983070F4815D990B21E030E001C0220F12
:102D10008A95EAF780911D02822B80931D02089507
:102D20008D3D31F480911B02816080931B020895D8
:102D30008E3D21F480911B028260F7CF8F3DB9F761
:102D400080911B028460F1CF40911E028D3C59F4AA
:102D500080911F0287FF0DC010921F0241110BC00E
:102D600010921A0208C08E3C81F480911F0218163E
:102D70009CF3442381F08091200290912102892BC1
:102D800009F05AC01092190208958F3C49F447FF88
:102D9000F0CF10921E0280911F028111ECCFE0CF84
:102DA000803D19F41416ACF3E4CF90912002893DD4
:102DB00029F41916F4F610922002DBCF8A3D19F49B
:102DC00097FFD7CFF8CF909121028B3D29F497FF41
:102DD000D0CF10922102CDCF8C3D19F41916CCF32F
:102DE000C8CF9FE2980F983090F4815D990B21E055
:102DF00030E0B90102C0660F771F8A95E2F7CB0178
:102E0000809590911D02892380931D02B2CF8D3D44
:102E100031F480911B028E7F80931B02AACF8E3DDE
:102E200021F480911B028D7FF7CF8F3D09F0A1CF58
:102E300080911B028B7FF0CF08950E94B5239C01E7
:102E400090911E0280911F02982B21F0309318025E
:102E5000209317029091200280912102982B21F05B
:102E600030931602209315028CE192E00E947E229C
:102E7000089586E0ECE1F2E0DF011D928A95E9F722
:102E800010921A021092190210921B020895FC016E
:102E9000828181110EC0838181110BC084818111D7
:102EA00008C091E08581811101C090E0892F817077
:102EB000089581E0FCCFA6E0B0E0E1E6F7E10C94F4
:102EC000C12786E0ECE1F2E0DE01119601900D925F
:102ED0008A95E1F710921E0210921F0210922002B2
:102EE000109221028B819C81892B89F0809117029D
:102EF000909118020E94CD23AC0190911A0299235F
:102F0000C9F1809108018417150608F440C08D812D
:102F10009E81892B91F080911502909116020E945A
:102F2000CD23AC0190911902992309F471C08091CD
:102F300004018417150608F479C0BE016F5F7F4F46
:102F40008CE192E00E942B23811105C08CE192E07C
:102F50000E94471781110E941D1786E0FE013196DD
:102F6000ACE1B2E001900D928A95E1F72696E3E09C
:102F70000C94DD27209109018AE0289F90011124FB
:102F80002417350720F69F5F90931A0202C09F3FD7
:102F9000D1F71B81112359F00E94D3159FEF111611
:102FA0000CF491E0899F802D112480931E021C81D6
:102FB000112359F00E94D3159FEF11160CF491E0E4
:102FC000899F802D112480931F0230911E0233238C
:102FD00009F49DCF20911F02222309F498CF45EBDD
:102FE0003403C0011124992359F090931E0245EB3C
:102FF000240390011124332339F030931F0287CF2B
:1030000081E080931E02F3CF81E080931F027FCF87
:10301000209105018AE0289F90011124241735078B
:1030200008F08BCF9F5F9093190202C09F3FD1F7AA
:103030001D81112359F00E9411169FEF11160CF4F7
:1030400091E0899F802D1124809320021E811123FD
:1030500059F00E9411169FEF11160CF491E0899F10
:10306000802D11248093210230912002332309F412
:1030700064CF20912102222309F45FCF45EB340372
:10308000C0011124992359F09093200245EB2403A9
:1030900090011124332339F0309321024ECF81E087
:1030A00080932002F3CF81E08093210246CF82E219
:1030B00090E00E940828833289F483E290E00E9425
:1030C0000828833059F484E290E00E94082891E0B7
:1030D000803209F090E0892F8170089580E0FCCF64
:1030E000CF93C82F6FEF811163E282E290E00E94DC
:1030F00016286FEFC11163E083E290E00E9416286A
:103100006FEFC11160E284E290E00E941628CF9137
:103110000895089585E290E00E940828682F70E0E5
:1031200090E080E008950895CF93C62F0E949318F1
:103130006C2F85E290E00E941628CF91089580E0E0
:103140000E94701860E070E0CB010E9494180E9409
:10315000FB1E0E94C81F81E00E94701808950E9403
:1031600089180E948A180E9493180E94571881118A
:1031700002C00E949F18089508959C01FB0182815E
:10318000882351F0A90157574038510530F4822F58
:103190000E94D81F80E0089581E008952FEFFC0180
:1031A000208308950E94CE18089580E00895B0E02D
:1031B000A0E0EDEDF8E10C94BC27EC01E62E0E94B6
:1031C000D518811110C0E881E150E331B8F4F0E086
:1031D000E85AF74D0C94A52719828CE08A836E2D4E
:1031E000CE010E941F25CDB7DEB7E8E00C94D827AA
:1031F00089818230C1F028F4813061F08FEF8883BB
:10320000EECF833099F08430C9F71A821B821C827A
:103210001D82E5CF0E94C1230E94AB276A837B8376
:103220008C839D83DCCF0E948A18F6CF8A81082F79
:1032300010E06E0193E0C90ED11C9CE1F92EF80E4E
:103240000230110560F6802F0E94DA14F601819396
:103250006F010F5F1F4FF012F3CFC1CF8981823012
:1032600031F0853059F68A810E94BC18B8CF6A8146
:103270007B818C819D810E94AB270E949418AFCFE7
:103280004B816A8189810E94BD1E982789279827D2
:103290009D838C83A4CF2C813D8132272327322725
:1032A0004B816A8189810E94DF1E99CF0E94FB1E9B
:1032B00096CF6E2DCE010E94D21891CF0E94791F19
:1032C00089838DCF0E947B1F9827892798279A830F
:1032D000898385CF6B8170E089819A81AE014C5FD3
:1032E0005F4F9827892798270E947E1F78CF6B8190
:1032F00070E089819A81AE014C5F5F4F98278927E2
:1033000098270E94A31F6BCF0E94C81F68CF0E94FE
:10331000AB1ED6CF6B8170E089819A81AE014C5F84
:103320005F4F9827892798270E94271F58CF6B81C6
:1033300070E089819A81AE014C5F5F4F98278927A1
:1033400098270E944A1F4BCFB0E0A0E0EAEAF9E1DB
:103350000C94BC276C017B0164E670E088E70E9456
:103360007621EC0197FD12C010E000E0F601E00FBD
:10337000F11F849164E670E00E94E221EC01892B48
:1033800029F40F5F1F4F0E151F0581F70E94582269
:10339000CE01CDB7DEB7E8E00C94D82708950E949F
:1033A000CE190895E7E1F3E080E092E0DF019C01AF
:1033B0001D9221503040E1F7F0931C05E0931B056E
:1033C0008FEF9FEF90934E0280934D0208950E94DD
:1033D000CE190E94CF198093490280FD0FC080E86A
:1033E000809348020E9470216DE070E08EE092E0D0
:1033F0000E94A419892B21F080E0089580E2F0CF8B
:103400008091490263E070E081FD26C08BE092E08C
:103410000E94A419892B81F76DE070E08BEF91E099
:103420000E94A419892B41F70E94C123605A75415B
:103430008F4F9F4F60931705709318058093190560
:1034400090931A050E94D21981E080934C028093D8
:103450004B0210924A02089588E092E0D9CF209161
:10346000480236E0839FC0011124629F800D911DA8
:103470001124811522E0920714F090E080E0895E2B
:103480009C4F90931C0580931B05089520911B056C
:1034900030911C052151334040914802642F70E067
:1034A000C9010E947D27481B463010F4240F311DAE
:1034B000211582E0380710F030E020E0295E3C4F13
:1034C00030931C0520931B0508951F93CF93DF9322
:1034D000162F8A3039F481E00E94DE1ADF91CF91F5
:1034E0001F9108958D3011F480E0F6CFC0911B0537
:1034F000D0911C0596E0FE01A2E2B2E001900D928F
:103500009A95E1F7803EB8F086E0FE0111928A9527
:10351000E9F711111CC0C0911B05D0911C0546E0B4
:1035200050E0BE0182E292E00E94F227892BE9F48A
:103530000E94461AD3CFF6E08F9FB0011124655E3A
:103540007D4F46E050E0CE010E94E927E2CFE091B6
:103550001B05F0911C059F012A5F3F4F2E173F0767
:10356000D1F2808180958193F9CFC751D340CE01AC
:1035700025E0969587952A95E1F721E030E0A901AD
:1035800002C0440F551F8A95E2F7CA0140914D02CF
:1035900050914E02842B952B259645E0D695C795E4
:1035A0004A95E1F702C0220F331FCA95E2F7822B3A
:1035B000932B90934E0280934D02BACFCF93382F26
:1035C000E0911B05F0911C05E751F3402091480262
:1035D000622F70E0CF010E947D27281B822F3323AA
:1035E00069F066E00E947127C82FC15010F4CF9196
:1035F000089560E080E20E94651AF7CF9F01280FCE
:10360000311D2115324018F080E0F0E0E0E08E0F2F
:103610009F2F911D895E9C4F90931C0580931B05E5
:10362000E6CF1F93CF93DF93EC01162FFE01849119
:10363000811104C0DF91CF911F910895612F0E94E5
:10364000651A2196F3CF80914C02811103C08091BD
:103650004B0208950E94C123605A75418F4F9F4FBE
:1036600060931705709318058093190590931A05B8
:1036700080914B028111EBCF62E070E089EF91E025
:103680000E94A419892B19F781E080934B02DFCFA8
:10369000B0E0A0E0EEE4FBE10C94B62780914D028F
:1036A00090914E02892B09F4BDC080914C02882371
:1036B00009F4B8C080914A028111B4C00E94231B52
:1036C00020914D0230914E022115310509F4AAC016
:1036D00080E041E050E0082F10E0EA01082E02C02F
:1036E000CC0FDD1F0A94E2F7BE0162237323672B20
:1036F00011F48F5FF0CF9091490290FF98C0880F2E
:10370000880F880F80930C0110920F01895F8093BE
:103710000D0183E08093100124E630E047E050E0A3
:103720006AE071E088E70E941022892B09F07AC0D4
:10373000A80125E0440F551F2A95E1F78091490221
:1037400080FF87C0E8E2F2E080E2DF011D928A9507
:10375000E9F70AE911E086E9E82E81E0F82E97E022
:10376000992E88248394D801ED918D01D7016D9114
:103770007D01640F752F711D695E7C4FF0E0E85D7F
:10378000FD4F30E020E0792C721AA82C022E01C0E7
:10379000AA0C0A94EAF76B0190E0D6018D916D01B5
:1037A0008A21A72DA91BA770BA2E0A2E000CBB0BCD
:1037B000682E01C0660CBA94EAF7B62CB195A195B3
:1037C000B109A770BB2701C08695AA95EAF7A62D77
:1037D000A82B80818A2B80839F5F9830F1F62F5F22
:1037E0003F4F31962830310571F681E00E391807C8
:1037F00009F0B9CF04E610E020E230E048E252E000
:1038000060E488E70E943122892B61F4C095D0954D
:1038100080914D0290914E02C823D923D0934E023D
:10382000C0934D02CDB7DEB7EEE00C94D22782955F
:10383000880F807680930C019801369527953695F0
:10384000279520930F01815E80930D011092100146
:1038500063CF495E5C4F04E610E020E230E0D0CF59
:1038600080914B0290914C02911103C091E0892705
:103870000895882369F062E070E087EF91E00E948C
:10388000A419892B19F080914B02089510924B02D4
:1038900080914B02EBCF0E94480608950F931F932F
:1038A00080914C02882309F160E080E00E942F1A89
:1038B0000E944B1C0E94481B80914B028823A9F058
:1038C0000E94C12300911705109118052091190538
:1038D00030911A05601B710B820B930B6F3F7F4F6A
:1038E0008F4F9F4710F40E94301C1F910F91089535
:1038F000CF93DF93EC01FB018281882309F4D2C0CE
:103900009E0130572332310508F0B2C00E940511E4
:103910009093120380931103FE01E150F047E232CD
:10392000F10520F4E559F74D0C94A527809111037A
:1039300081608093110393C080911203886080930B
:1039400012038DC0809111038260F3CF8091110327
:103950008460EFCF809111038860EBCF80911203D8
:103960008160EDCF809112038260E9CF80911103D5
:103970008061DFCF809111038062DBCF80911103E2
:103980008064D7CF0E94750B809111038068D1CFDE
:10399000809111038C60CDCF809112038360CFCFD3
:1039A000809111038E7FC5CF80911203877FC7CF8F
:1039B000809111038D7FBDCF809111038B7FB9CF93
:1039C00080911103877FB5CF809112038E7FB7CF8F
:1039D000809112038D7FB3CF809111038F7EA9CF89
:1039E000809111038F7DA5CF809111038F7BA1CF93
:1039F0000E94750B809111038F779BCF80911103EB
:103A0000837F97CF809112038C7F99CF8091110390
:103A100082FB992790F921E0922790FB82F990FB95
:103A200083F987CF80911203982F909591708E7FA4
:103A3000892B90FB81F983CF90911103892F8F7B84
:103A400096FF806476CF0E94750B90911103892FA9
:103A500097FB87F980586DCF81E00E948511809196
:103A60001103909112030E940A110E94750B80E0CD
:103A7000DF91CF91089580E0F0CF90911103892FCD
:103A80008F7E94FF806155CF90911103892F8E7F97
:103A900090FF81604ECF90911203892F877F93FF13
:103AA00088604DCF81E0E4CFB0E0A0E0EAE5FDE141
:103AB0000C94BD27E82FF0E0E55AF84FD490282F5A
:103AC00026952695269530E0F901E550F84F0491AA
:103AD000877010E0082E02C0159507950A94E2F74A
:103AE00001701127F901E551F84FE490F12C082EEF
:103AF00002C0F594E7940A94E2F791E0E922FF24EA
:103B0000F901E552F84FC491D0E002C0D595C795B0
:103B10008A95E2F7C170DD270115110519F081EED4
:103B20000E947008E114F10419F086EE0E947008FA
:103B30008D2D0E940809E114F10419F086EE0E940F
:103B4000BD080115110519F081EE0E94BD08CD2BAD
:103B500019F08CE20E940809CDB7DEB7E7E00C94BB
:103B6000D927EF92FF920F931F93CF93DF93EC012E
:103B7000162F0AE08881882309F454C0813009F0A7
:103B80004EC08981813099F47E0122E0E20EF11C61
:103B90008A810E940809E7012196812F815050F304
:103BA000EFE9FFE03197F1F700C00000F7CF823076
:103BB00041F47E0182E0E80EF11C8A810E947008C7
:103BC000EACF833041F47E01E2E0EE0EF11C8A81FF
:103BD0000E94BD08E0CF843011F02196DDCF2A810C
:103BE000229690E080E0AE014F5F5F4F2053330B91
:103BF0002A30310548F0019778F2EFE9FFE031977C
:103C0000F1F700C00000F7CF089FB001099F700DC9
:103C10001124C901860F971F2981EA01E4CF0E9470
:103C2000541DBACFCDB7DEB7E6E00C94DA278FE8A3
:103C300091E00197F1F700C0000008950E94B506D9
:103C4000089581E08093500256985E9A57985F9A43
:103C50000E94171E4091500262E572E0FB018E2F18
:103C6000861B841708F0089589B186FB882780F9A0
:103C700029B130E0220F232F221F330B90E0232B9A
:103C800009F092E0892B8193EACFB0E0A0E0EBE469
:103C9000FEE10C94BC27F12CE12C34E0C32ED12C96
:103CA00080915002F81630F08E2DCDB7DEB7E8E0E7
:103CB0000C94D8270F2D10E0E9B1E6FBEE27E0F9D0
:103CC00089B190E0880F892F881F990B892B09F003
:103CD00040C080E08E2BD801AE5ABD4FEC919E2F94
:103CE00093709817A1F1EE0FEE0FE82BEC93EF70A5
:103CF000F0E0E256FE4FE801CF5ADD4F8081988117
:103D0000890F888320E084305CF0F801E15BFD4F8F
:103D100080818F5F808360E08F2D0E941E1E21E0D6
:103D200088818D3F5CF4F801E15BFD4F808181501B
:103D3000808361E08F2D0E941E1E21E08881082E65
:103D4000000C990BB6010E9491278883E22AF39414
:103D5000A7CF82E0BFCF84E0089550E0440F551F05
:103D600096E0699F400D511D11249CE0899F400DF4
:103D7000511D1124CA01869608950F931F93CF9366
:103D8000DF938430C8F46230B8F44330A8F40E9462
:103D9000AD1E8C010E940828C82FD0E0DC2FCC2754
:103DA000C80101960E9408289E01282BC901DF91B5
:103DB000CF911F910F91089590E080E0F8CF0F937D
:103DC0001F93CF93DF93122F032F843078F4623048
:103DD00068F4433058F40E94AD1EEC01602F0E943D
:103DE0001628612FCE0101960E941628DF91CF91EF
:103DF0001F910F9108950F931F93CF93DF93D0E0FE
:103E0000C0E000E019C00E94E90621E030E08C1714
:103E10001D0639F034F0412F602F8C2F0E94EB06E5
:103E20009C01412F602F8C2F0E94DF1E1F5F1330DB
:103E300051F7013019F001E010E0E5CF2196C430D0
:103E4000D105F9F6DF91CF911F910F910895EF926F
:103E5000FF920F931F93CF93DF93EC018A017C01B4
:103E6000E60EF71ECE018696CE15DF0529F4CDB7F6
:103E7000DEB7E6E00C94DA27C033D10540F40E94A7
:103E80000828F80180830F5F1F4F2196EBCFF801C0
:103E90001082F9CFB0E0A0E0E0E5FFE10C94BC2790
:103EA0007C016A018C01060F171FEC01CE0186967A
:103EB000C017D10729F4CDB7DEB7E8E00C94D827B6
:103EC000C033D10540F4FE01EE19FF09EC0DFD1DD4
:103ED00060810E9416282196E9CF843038F4623040
:103EE00028F4433018F40E94BD1E089590E080E04D
:103EF000089580E108958AEA93E00895EF92FF9291
:103F00000F931F93CF93DF93EC018A017C01E60EA0
:103F1000F71ECE018A5A9F4FCE15DF0529F4CDB783
:103F2000DEB7E6E00C94DA27CA3A23E0D20740F481
:103F30000E940828F80180830F5F1F4F2196E9CF68
:103F4000F8011082F9CFB0E0A0E0E9EAFFE10C94BB
:103F5000BC277C016A018C01060F171FEC01CE0102
:103F60008A5A9F4FC017D10729F4CDB7DEB7E8E0D2
:103F70000C94D827CA3A23E0D20740F4FE01EE1988
:103F8000FF09EC0DFD1D60810E9416282196E7CFE8
:103F9000CF93DF93C6E5D0E060E0CE010E94162803
:103FA0002196C11584E0D807B9F7DF91CF91089524
:103FB000A8E0B0E0EEEDFFE10C94BA27F82E8FE018
:103FC0008F1508F46EC08FEF93E00E9408288111CE
:103FD00068C006E510E0F11035C0FE0131966F01B2
:103FE00088E011928A95E9F77801FFEFEF1AFF0A4E
:103FF000C8010E94082889831A82882309F451C0C5
:104000008130D1F4580182E0A80EB11CC7010E9492
:1040100008288A83882309F444C09FEF980F9330BF
:10402000F0F4780193E0E90EF11CC5010E94082824
:104030008B838823B1F11C826AE0C6010E94B11D06
:104040008701D2CF011594E0190759F1C8010E94E8
:104050000828811101C0FA940F5F1F4FBCCF750172
:10406000843051F702E010E07501EFEFEE1AFE0A1E
:10407000C5010E940828F601E00FF11F8083882304
:1040800081F08C3741F4E2E0F0E0EC0FFD1FE00F2F
:10409000F11F1082D1CF0F5F1F4F5701073011055D
:1040A00019F72896EAE00C94D627CF93DF93EB011B
:1040B00086319C4711F50E9417109A81992399F037
:1040C0008A7A91E009F490E090935302811109C03B
:1040D00089E20E94EF0F0E94581080E0DF91CF919B
:1040E000089585E3F6CF80915302811104C089E2DF
:1040F0000E94F70FF0CF85E3FBCF81E0EFCF0F9366
:104100001F93CF93DF93C42FD22FFC01828188238A
:10411000C9F0409356020E94B523909355028093B4
:10412000540280E28C0F883040F4C77081E001C0F7
:10413000880FCA95EAF70E941109DF91CF911F916C
:104140000F91089510915602141332C080915402B9
:10415000909155020E94CD23883C910548F5C0E21C
:10416000CD0F1D17B9F080E2810F883040F4177031
:1041700081E001C0880F1A95EAF70E941809C8303B
:1041800048F481E09D2F977001C0880F9A95EAF757
:104190000E941109802F0E940809C83070F6D7705C
:1041A00081E001C0880FDA95EAF70E941809C5CFAF
:1041B00080E28C0F883008F6C77081E001C0880F5C
:1041C000CA95EAF7F2CF0F93DB0188519C478730FD
:1041D0009105A0F5FC01E357F74D0C94A52706E2E5
:1041E00021EE41EE6AE17CE7CD010E947F2080E074
:1041F0000F91089507E225EE45EE6BE17CE7F4CFE1
:1042000006E221EE40EE68E17CE7EECF07E225EE24
:1042100044EE69E17CE7E8CF06E221EE42EE6CE194
:104220007CE7E2CF07E225EE46EE6DE17CE7DCCFEE
:1042300008E221E045EE6EE17CE7D6CF12968C9144
:10424000882319F010925602D3CF81E0D1CF1F936B
:10425000CF93DF9387372CE7920759F0C1E0883777
:104260009C47E1F4FB01C281CC2371F10E946A21D9
:1042700006C0FB01C281CC23B1F00E9467210E94DD
:10428000F30B0E946D21D82F0E946A21C82F0E9433
:1042900067214D2F6C2F0E941B0DC0E08C2FDF91EA
:1042A000CF911F9108950E9467210E94FF0B0E94E9
:1042B0006D21182F0E946A21D82F0E946721412F5B
:1042C0006D2F0E941B0DEACF0E946A21EECF8091D4
:1042D00013010895809112010895809111010895AC
:1042E0001092B9008CE08093B8000895B0E0A0E08F
:1042F000ECE7F1E20C94B927B82EEB010E94B5234C
:104300006C01EE24E394F12CC431D10560F025E07A
:10431000E22EF12CCF3FDC0731F0CE0164E170E0FA
:104320000E947D277B0184EAA82E94E8992E1092A2
:10433000BC00A092BC000E94B5238C018091BC00FF
:1043400087FF0DC08091B900887F8830F9F0809197
:10435000B900887F8031D1F00FEF1FEF08C0C8018E
:104360000E94CD23E816F90648F70EEF1FEFCF3F66
:10437000DC07E9F2C6010E94CD23C817D907B8F6B9
:10438000C801CDB7DEB7EBE00C94D527B092BB00E7
:104390009092BC000E94B5238C018091BC0087FFE5
:1043A0000AC08091B900887F883111F08034A1F66D
:1043B00010E000E0E5CFC8010E94CD23E816F90621
:1043C00060F7D3CF0F931F93CF93DF93EB018093CD
:1043D000BB0084E88093BC000E94B5238C018091CF
:1043E000BC0087FF11C02091B900287F81E090E0D8
:1043F000283211F490E080E0919581959109DF9148
:10440000CF911F910F910895CF3FDC0741F3C80171
:104410000E94CD23C817D90710F78EEF9FEFEFCF7B
:10442000B0E0A0E0E6E1F2E20C94BC276B018A0167
:104430007901B9010E947621E6010C0D1D1DC017FE
:10444000D10711F097FF08C024E92093BC00CDB735
:10445000DEB7E8E00C94D827B70189910E94E221E9
:10446000EECFB0E0A0E0E7E3F2E20C94BC27C62F69
:104470006A017901B8010E94762197FD0CC0B8014C
:104480008C2F0E94E221E601EC0CFD1CCE15DF050D
:1044900011F097FF08C024E92093BC00CDB7DEB728
:1044A000E8E00C94D827B80189910E94E221EECF70
:1044B00084E98093BC0008959093AF018093AE018E
:1044C000089590935C0280935B020895E0915B02F3
:1044D000F0915C02309729F00190F081E02D099570
:1044E000089580E00895E0915B02F0915C023097BE
:1044F00021F00280F381E02D09950895E0915B029F
:10450000F0915C02309739F022E0DC012C930480BA
:10451000F581E02D09950895A3E0B0E0E2E9F2E22B
:104520000C94C2272091590230915A02281739075A
:10453000A1F090935A0280935902E0915B02F091AE
:104540005C02309751F023E029839B838A830680A5
:10455000F781E02DCE01019609952396E2E00C94B7
:10456000DE27A3E0B0E0E7EBF2E20C94C227209153
:1045700057023091580228173907A1F0909358023A
:1045800080935702E0915B02F0915C02309751F00A
:1045900024E029839B838A830680F781E02DCE0166
:1045A000019609952396E2E00C94DE279C012E5F8C
:1045B0003F4FAC01485F5F4F80E02417350709F497
:1045C0000895F90191919F019923B9F38F5FF5CF78
:1045D000662349F0FC01329608962191261729F0AE
:1045E000E817F907D1F780E0089581E008959C016C
:1045F000FC0132969FEF80E04191461751F09F3FBA
:1046000019F4411101C0982F8F5F8630A9F79F3FA1
:1046100009F40895290F311D97FD3A95F901628338
:104620000895FC01329608962191261303C0DF01FC
:1046300011971C92E817F907B9F708950E94F7221D
:1046400008950E9411230895029626E0FC0111921C
:104650002A95E9F7089546E050E00E94F22721E00C
:10466000892B09F420E0822F0895089508950E946F
:1046700036230895089508950E94352308950E94D1
:104680003A230E944B150E943B2380E00E94DA14DB
:1046900091E0811107C081E00E94DA1491E081115C
:1046A00001C090E0892F089508951F921FB61F92B0
:1046B00011248F939F93AF93BF9380915D028111DB
:1046C00013C080911D0590911E05A0911F05B0910A
:1046D00020054196A11DB11D80931D0590931E05D7
:1046E000A0931F05B0932005BF91AF919F918F912B
:1046F0001F901FBE1F90189580916002882331F192
:104700000E94CF0710925D0288E190E020E40FB68E
:10471000F894A895809360000FBE2093600083B743
:10472000817F846083BF83B7816083BF78948895DD
:1047300083B78E7F83BF0FB6F894A89580916000F1
:10474000886180936000109260000FBE08950E94FF
:10475000750B0E94D607089582E084BD93E095BD55
:104760009AEF97BD80936E0008952FB7F8948091CB
:104770001D0590911E05A0911F05B09120052FBF2A
:1047800008952FB7F89460911D0570911E058091D2
:104790001F05909120052FBF08959C014FB7F894F5
:1047A00080911D0590911E05A0911F05B0912005D7
:1047B0004FBF821B930B089578941F921FB61F92D0
:1047C00011248F939F93AF93BF9380911D05909178
:1047D0001E05A0911F05B09120050196A11DB11DD8
:1047E00080931D0590931E05A0931F05B09320058F
:1047F000BF91AF919F918F911F901FBE1F901895F1
:1048000088E198E00FB6F894A895809360000FBEF9
:1048100090936000A895F894D8E0CEEF28E3299310
:1048200020E0299314BEFFCF089588E198E00FB6E9
:10483000F894A895809360000FBE90936000FFCF1E
:104840000E94B52390935F0280935E0280E890E01F
:104850000FB6F89480936100909361000FBE0895A5
:104860000E945627539A80E0815019F45398789407
:104870000895A895EFE9FFE03197F1F700C0000037
:10488000F3CF0E9455250E9461222FEF80E792E02E
:10489000215080409040E1F700C0000008958091D1
:1048A0004805882369F1109248050E94B52390932A
:1048B0005F0280935E0280916002882341F0109233
:1048C00060020E94A7238091600281111DC00E9496
:1048D000662680914E05882329F080912C0584FD61
:1048E0000E940F120E94C6240E94662680914E05E7
:1048F000882329F08091380584FD0E944925089578
:1049000080916002882301F10E947C230E943F2352
:104910008823A9F3F8942AB15B9A822F8C608AB914
:104920009BB13CE093279BB94FE788E391E041506E
:1049300080409040E1F700C000008BB183278BB925
:104940002AB95B987894089580915E0290915F02F5
:104950000E94CD23069708F4B6CF81E080936002D1
:104960000E947C23B0CF80911003089520916505AB
:1049700024FF03C063E00E945C2608952091650532
:1049800024FF03C066E00E945C260895CF93DF9366
:10499000CAE0D0E080912C0584FF1AC080918D027E
:1049A00090918E02981789F028E0829FC00111240F
:1049B00068E081579D4F0E94572680918D0290E0BC
:1049C00001968F70992780938D02DF91CF91089582
:1049D0000E9466268FE99FE00197F1F700C0000072
:1049E0002197C1F6F2CFCF93DF93EC01A0918E0215
:1049F000B0E0CD0101968F70992720918D02281784
:104A000079F093E0AA0FBB1F9A95E1F7A157BD4F2C
:104A100098E0FE0101900D929A95E1F780938E0245
:104A20000E9466260E94C62488E0FE01A5E8B2E046
:104A300001900D928A95E1F7DF91CF9108950F9340
:104A40001F93CF93DF93EC016032D9F48C01005EA9
:104A50001F4F02C00E9466268091380584FFFACF5E
:104A600068E0CE010E9461262896C017D107A1F701
:104A70008091380584FF0AC060E090E080E00E94E9
:104A80006126DF91CF911F910F9108950E946626B4
:104A9000EFCF80916402803239F460E285E692E0E3
:104AA0000E94D71810926402089584E191E008955D
:104AB000FC01808180768032F1F48181813061F463
:104AC00084819581892BB9F485E892E090934A0519
:104AD0008093490588E00895823041F48FE093E0A7
:104AE00090934A058093490581E008958A3029F41E
:104AF000838180930F0380E008958930E1F78281FC
:104B000093818115924069F484819581892B49F4C0
:104B100081E0809363028681978190936202809303
:104B200061028FEF0895FC01809161029091620211
:104B3000892B61F080916302813041F490819093E0
:104B40001003109262021092610208958FEF08958F
:104B5000683019F01092640208952091640229319E
:104B6000C8F7FC01A22FB0E0AB59BD4F08963191B8
:104B70003D93E817F907D9F7285F20936402089559
:104B8000FC018381833081F130F48130E9F082309F
:104B900019F180E008958132E1F18232D1F7248168
:104BA00035812130310509F452C02115310509F450
:104BB00046C02230310569F786EC98E090934A05AB
:104BC000809349058BE7089586E698E090934A051F
:104BD0008093490582E108958BE098E090934A051F
:104BE000809349058BE508958281813079F088238F
:104BF00029F0823071F688E798E0E8CF80EA98E003
:104C000090934A058093490584E008958CE898E0E4
:104C1000DDCF8281813081F0882331F0823009F04C
:104C2000B8CF86E598E002C08DE198E090934A0500
:104C30008093490589E0089586E398E0F7CF81E401
:104C400099E090934A058093490580E4089524EA09
:104C500038E030934A052093490508951F93CF9378
:104C6000DF93E82F792F162FEA01888184FF1CC07B
:104C7000298188E828272983CE010296DC012E2F7E
:104C8000372F512F5E0FF90121912D939F01452F51
:104C90004E1B1416C4F3612F0E94F5041C5F188389
:104CA000DF91CF911F9108958AE58883E5CF4CE28B
:104CB00055E00E942E26089545E655E00E942E26D6
:104CC000089548E355E00E942E260895CF93DF9380
:104CD00060914B05635067FD12C080914705CCE0A1
:104CE000D0E0C81BD109C15BDA4F80914605803105
:104CF00008F054C0CE010E94A82510924B05809167
:104D00001D0184FF3EC080911C018F3FD1F1C82F4F
:104D1000893008F0C8E0982F9C1B90931C0190915B
:104D2000210528E89227909321058823E9F08091B6
:104D3000490590914A052091450526FFAEC0FC012A
:104D40002C2FA2E2B5E034913D9331962150D9F752
:104D50009C012F5F3F4F8FEF8C0F820F932F911D80
:104D600090934A05809349056C2F82E295E00E945A
:104D7000F504CC5FCC3019F08FEF80931C01C09309
:104D80001D0184E199B19C7031F48150D9F71092E2
:104D90004C0510924405DF91CF9108958D3209F0B2
:104DA00069C0683009F0A9CF83EC809321058AE5BA
:104DB00080931D01109245058881807671F0CE01A7
:104DC0000E9458258F3FC1F4988197FD8E8190E80D
:104DD0009093450580931C0190CF2A8110922A055B
:104DE0009981911111C010922B052AE235E082E0E1
:104DF00030934A05209349059F819111EBCF9E8105
:104E0000981740F7892FE6CF953029F420934C0569
:104E10002AE235E0EDCF963099F49B81913021F470
:104E2000CE010E94C02508C09230D1F39330C1F367
:104E30009132B1F39232A1F390E490934505C2CF41
:104E4000983089F0993019F420934E05E1CF9A30CB
:104E500071F09B30E9F69BE490932D0590936605E5
:104E600090933905D5CF2EE435E081E0C1CF2AE219
:104E700035E0FBCF8091450587FF3FCFCE010E94F3
:104E800093258F3F21F48EE180931D0136CF882337
:104E900009F433CF10921C0130CFDC012C2FE2E259
:104EA000F5E03D9131932150E1F752CFCF93DF935D
:104EB000E9E6F0E0808188608083E99ACCE2D5E081
:104EC0008BE48983A5E6B5E011968C931197E8E30E
:104ED000F5E081838AE588838C938083DF91CF918D
:104EE0000895991B79E004C0991F961708F0961B46
:104EF000881F7A95C9F780950895AA1BBB1B51E1BD
:104F000007C0AA1FBB1FA617B70710F0A61BB70B39
:104F1000881F991F5A95A9F780959095BC01CD01DE
:104F2000089597FB072E16F4009407D077FD09D05B
:104F30000E947D2707FC05D03EF4909581959F4FF8
:104F40000895709561957F4F0895EE0FFF1F0590AE
:104F5000F491E02D099469279627692778278727F8
:104F6000782708952F923F924F925F926F927F928F
:104F70008F929F92AF92BF92CF92DF92EF92FF9269
:104F80000F931F93CF93DF93CDB7DEB7CA1BDB0B15
:104F90000FB6F894DEBF0FBECDBF09942A883988BA
:104FA00048885F846E847D848C849B84AA84B984C1
:104FB000C884DF80EE80FD800C811B81AA81B981CD
:104FC000CE0FD11D0FB6F894DEBF0FBECDBFED01E1
:104FD0000895FB01DC0102C005900D924150504044
:104FE000D8F70895FB01DC0104C08D910190801970
:104FF00021F441505040C8F7881B990B0895FB01DC
:10500000DC0102C001900D9241505040D8F7089544
:10501000F999FECF92BD81BDF89A992780B5089580
:10502000A8E1B0E042E050E00C943C28262FF9992A
:10503000FECF92BD81BDF89A019700B4021639F0F7
:105040001FBA20BD0FB6F894FA9AF99A0FBE0895C8
:105050000396272F0E9417280E941628252F0E94AA
:105060001728242F0C9417280196272F0E94172801
:105070000C941628DC01CB01FC01F999FECF06C087
:10508000F2BDE1BDF89A319600B40D924150504006
:10509000B8F70895F894FFCF5E095E09AE09AE092E
:1050A000220A3E0A8D098D09430AAA0AB90AB90AD9
:1050B000EC18F8182E1940194B1956195919591985
:1050C0005919FE18FE185E1962196A1977198419A0
:1050D00087198A199719D01C441DD81CA21CA61C1C
:1050E000DC1CAA1CE01CEC1CB61C3D1DBA1CF01CF0
:1050F000BE1CF41C1C1DC21CF81C231DC81CFE1C5D
:10510000061DAE1CE41CB21CE81CCC1C021D121DAA
:105110002C1D3B1D9C1CD41C4B1D00210621EF2087
:08512000FA200C2112211821D4
:10512800F701280850011E0A14010021007F2200FF
:1051380003030201B324F324BE24B624FF5AE20079
:10514800E900EA00B500B600B700CD008301CC0045
:105158008A019201940121022302240225022602D7
:1051680027022A02B300B4006F0070009F01CB0130
:105178009F02A002818283E200E900EA00B500B63E
:1051880000B700CD008301CC008A0192019401216F
:1051980002230224022502260227022A02B300B4AF
:1051A800006F0070009F01CB019F02A002818283E3
:1051B800949531636261000810181810080000FF08
:0E51C8000100010000FFFF0000010001FF00D8
:00000001FF
